:100000000C946E050C9496050C9496050C9496052C
:100010000C9496050C9496050C9496050C949605F4
:100020000C9496050C9496050C94E40E0C94560FC3
:100030000C9496050C9496050C9496050C949605D4
:100040000C9496050C9496050C9496050C949605C4
:100050000C9496050C9496050C9496050C947A09CC
:100060000C9496050C9496050C9496050C949605A4
:100070000C9496050C9496050C9496050C94960594
:100080000C94C4090C9496050C9496050C94960552
:100090000C9496050C9496050C9496050C94960574
:1000A0000C9496050C9496050C94960529062C063E
:1000B0001B061F0623064D064D064D063006340668
:1000C00038063E0642064D0648064B0850085508BD
:1000D0005F086908B308B308B30873087D08870888
:1000E00091089E08B308A60800407A10F35A00A0B1
:1000F000724E18090010A5D4E80000E876481700F1
:1001000000E40B54020000CA9A3B000000E1F50530
:10011000000080969800000040420F000000A0867A
:1001200001000000102700000000E80300000000AC
:100130006400000000000A00000000000100000050
:1001400000002C76D888DC674F0823DFC1DFAE596A
:10015000E1B1B796E5E3E453C63AE651997696E8FD
:10016000E6C28426EB898C9B62ED407C6FFCEFBC81
:100170009C9F40F2BAA56FA5F490055A2AF75C93AC
:100180006B6CF9676DC11BFCE0E40D47FEF520E6E2
:10019000B500D0ED902E0300943577050080841EC5
:1001A000080000204E0A000000C80C333333330F20
:1001B000986E12831141EF8D2114893BE65516CFBD
:1001C000FEE6DB18D1844B381BF77C1D901DA4BBC9
:1001D000E424203284725E228100C9F124ECA1E57E
:1001E0003D27F0F89C8E8783878E9CF8F00000FEF8
:1001F000FF0303030303070EFCF80000FEFF0303E5
:10020000030303070EFCF80000FFFF0000000000DE
:100210000000FFFF0000FEFF8383838383C7EE7C23
:10022000380000F8FC0E07030303070EFCF800007B
:100230003F7FE0C08080C0E07F3FFFFF0101010100
:10024000010101FFFF0000FFFF0C0C0C0C1C3E77AE
:10025000E3C100007FFFC0C0C0C0C0E0703F1F000E
:10026000001F3F70E0C0C0C0E0703F1F00007FFF74
:10027000C1C1C1C1C1E3773E1C00001F3F70E0C097
:10028000C0C0E0703F1F000000000001FFFF010040
:100290000000D5F08D14A1C881CFD9F1AF20001096
:1002A000080404000400000000000000000000003A
:1002B00000080008140000080022000800001400D4
:1002C00041040204060000000000000000000000DD
:1002D0000006060600060000000000000000000006
:1002E00000081611120C00000000000000000000C1
:1002F00000040404000000000000000000000000F2
:1003000000040004040000000000000000000000E1
:10031000004100140000080022000800001408003A
:1003200008060402040000000000000000000000B5
:1003300000060006060600000000000000000000A5
:10034000000C121116080000000000000000000060
:100350000004040400000000000000000000000091
:10036000000C10C0C0A0E050F090F050F090F050A1
:10037000F010F010F010F020E0C0C07F7FEAFFD551
:10038000FFAAFFD5FF82FF417F333F617FB4FFA407
:10039000FF7F7FC0C060E090F050F090F050F01010
:1003A000F010F010F010F020E0C0C07F7FD5FFAA61
:1003B000FFD5FF82FF417F333F213F343F647FB150
:1003C000FFFFFFC0C0A0E050F090F050F010F01020
:1003D000F010F010F010F020E0C0C07F7FEAFFD5F1
:1003E000FF82FF417F333F213F343F243F717F83B2
:1003F000FF7F7FC0C060E090F050F090F050F010B0
:10040000F010F010F010F020E0C0C07F7FD5FFAA00
:10041000FFD5FF82FF417F333F213F343F647FB1EF
:10042000FFFFFFC0C020E010F010F010F050F0907F
:10043000F050F090F050F0A0E0C0C07F7FA4FFB477
:10044000FF617F333F417F82FFD5FFAAFFD5FFEADF
:10045000FF7F7FC0C020E010F010F010F010F050CF
:10046000F090F050F090F060E0C0C0FFFFB1FF648A
:100470007F343F213F333F417F82FFD5FFAAFFD525
:10048000FF7F7FC0C020E010F010F010F010F010DF
:10049000F050F090F050F0A0E0C0C07F7F83FF717B
:1004A0007F243F343F213F333F417F82FFD5FFEA26
:1004B000FF7F7FC0C020E010F010F010F010F0506F
:1004C000F090F050F090F060E0C0C0FFFFB1FF642A
:1004D0007F343F213F333F417F82FFD5FFAAFFD5C5
:1004E000FF7F7F0102040810204080000000000010
:1004F0003E5B4F5B3E3E6B4F6B3E1C3E7C3E1C1892
:100500003C7E3C181C577D571C1C5E7F5E1C0018EF
:100510003C1800FFE7C3E7FF0018241800FFE7DBE3
:10052000E7FF30483A060E2629792926407F05053F
:1005300007407F05253F5A3CE73C5A7F3E1C1C087C
:10054000081C1C3E7F14227F22145F5F005F5F0641
:10055000097F017F006689956A606060606094A28F
:10056000FFA29408047E040810207E201008082AA8
:100570001C08081C2A08081E101010100C1E0C1E47
:100580000C30383E3830060E3E0E060000000000EB
:1005900000005F00000007000700147F147F142490
:1005A0002A7F2A1223130864623649562050000815
:1005B000070300001C2241000041221C002A1C7F6E
:1005C0001C2A08083E080800807030000808080847
:1005D00008000060600020100804023E5149453EBA
:1005E00000427F400072494949462141494D331834
:1005F00014127F1027454545393C4A49493141216C
:100600001109073649494936464949291E0000144F
:100610000000004034000000081422411414141497
:1006200014004122140802015909063E415D594E49
:100630007C1211127C7F494949363E414141227F5B
:100640004141413E7F494949417F090909013E41F4
:100650004151737F0808087F00417F4100204041DD
:100660003F017F081422417F404040407F021C022E
:100670007F7F0408107F3E4141413E7F0909090602
:100680003E4151215E7F09192946264949493203D5
:10069000017F01033F4040403F1F2040201F3F405B
:1006A00038403F6314081463030478040361594914
:1006B0004D43007F41414102040810200041414167
:1006C0007F0402010204404040404000030708004C
:1006D00020545478407F28444438384444442838CF
:1006E0004444287F385454541800087E090218A442
:1006F000A49C787F0804047800447D40002040409A
:100700003D007F1028440000417F40007C047804B5
:10071000787C080404783844444438FC18242418AD
:1007200018242418FC7C0804040848545454240455
:10073000043F44243C4040207C1C2040201C3C4082
:1007400030403C44281028444C9090907C446454A1
:100750004C44000836410000007700000041360894
:100760000002010204023C2623263C1EA1A16112C4
:100770003A4040207A3854545559215555794121F1
:1007800054547841215554784020545579400C1EDA
:100790005272123955555559395454545939555482
:1007A00054580000457C410002457D420001457CD3
:1007B00040F0292429F0F0282528F07C54554500E4
:1007C0002054547C547C0A097F49324949493232C9
:1007D00048484832324A4848303A4141217A3A4200
:1007E000402078009DA0A07D39444444393D4040DC
:1007F000403D3C24FF2424487E4943662B2FFC2F98
:100800002BFF0929F620C0887E0903205454794122
:100810000000447D413048484A32384040227A0046
:100820007A0A0A727D0D19317D2629292F28262959
:1008300029292630484D40203808080808080808AB
:1008400008382F10C8ACBA2F102834FA00007B00EB
:100850000008142A142222142A1408950022009554
:10086000AA005500AAAA55AA55AA000000FF001028
:100870001010FF00141414FF001010FF00FF1010E0
:10088000F010F0141414FC001414F700FF0000FF23
:1008900000FF1414F404FC141417101F10101F1080
:1008A0001F1414141F00101010F0000000001F107F
:1008B0001010101F10101010F010000000FF10108A
:1008C00010101010101010FF10000000FF14000096
:1008D000FF00FF00001F10170000FC04F4141417A1
:1008E00010171414F404F40000FF00F71414141487
:1008F000141414F700F7141414171410101F101FF9
:10090000141414F4141010F010F000001F101F0045
:1009100000001F14000000FC140000F010F0101084
:10092000FF10FF141414FF141010101F000000001B
:10093000F010FFFFFFFFFFF0F0F0F0F0FFFFFF000F
:1009400000000000FFFF0F0F0F0F0F384444384422
:100950007C2A2A3E147E02020606027E027E026382
:10096000554941633844443C04407E201E20060221
:100970007E020299A5E7A5991C2A492A1C4C7201FE
:10098000724C304A4D4D303048784830BC625A463F
:100990003D3E494949007E0101017E2A2A2A2A2A30
:1009A00044445F444440514A444040444A5140001A
:1009B00000FF0103E080FF000008086B6B0836129F
:1009C000362436060F090F06000018180000001024
:1009D00010003040FF0101001F01011E00191D170A
:1009E00012003C3C3C3C00000000000000000024E1
:1009F0000027002A002D00300000000000250028FC
:100A0000002B002E0031000404040404030405023A
:100A10000202020403020202020606060606060499
:100A20000402020204040408020110408040102065
:100A300040804080080204018040201002011080A4
:100A400010204040200000000200090F00000304B5
:100A500001000C0000000000000000000000000089
:100A600000000000080B000202020100090400005F
:100A70000102020000052400100105240101010407
:100A80002402060524060001070581031000400921
:100A9000040100020A0000000705020240000007EE
:100AA0000583024000000403090412010002EF0262
:100AB0000140412336800001010203014172647547
:100AC000696E6F204C4C430041726475696E6F20F3
:100AD0004C656F6E6172646F0000561D11241FBE5D
:100AE000CFEFDAE0DEBFCDBF12E0A0E0B1E0E2E49C
:100AF000FBE402C005900D92A43EB107D9F727E0B0
:100B0000A4EEB2E001C01D92AD3BB207E1F715E0E3
:100B1000CEE6D5E004C02197FE010E948D23CD369C
:100B2000D107C9F70E9452120C949F250C94000023
:100B3000CF92DF92EF92FF920F931F93CF93DF93A9
:100B40006C017A018B01C0E0D0E0CE15DF0589F0A1
:100B5000D8016D918D01D601ED91FC910190F0814C
:100B6000E02DC6010995892B11F47E0102C0219662
:100B7000ECCFC701DF91CF911F910F91FF90EF90C4
:100B8000DF90CF900895CF93DF931F92CDB7DEB75C
:100B90006983DC01ED91FC910280F381E02D41E05D
:100BA00050E0BE016F5F7F4F09950F90DF91CF91AD
:100BB000089583E08093E9008091F200882319F082
:100BC0008AE38093E8000895FC018485958597FD6C
:100BD0000BC09FB7F89482E08093E9008091F20007
:100BE0009FBF90E0019608959FB7F89482E08093AC
:100BF000E9008091F2009FBF90E00895362F90E0C9
:100C0000FC01EB5BF54F4491FC01EA5DF54F24914B
:100C1000FC01E95FF54F8491882309F451C0442316
:100C2000E1F150E0FA013197EF30F105B0F5EA5A01
:100C3000FF4F0C948D23909180009F7707C0909177
:100C400080009F7D03C090918000977F90938000EB
:100C500024C094B59F7702C094B59F7D94BD1DC0FC
:100C6000909190009F7707C0909190009F7D03C066
:100C700090919000977F909390000FC09091C0004A
:100C80009F7703C09091C0009F7D9093C00005C0E6
:100C90009091C200977F9093C200E82FF0E0EE0F92
:100CA000FF1FE750F64FA591B4918FB7F894EC91E0
:100CB000311103C020952E2301C02E2B2C938FBF02
:100CC00008953FB7F8948091320390913303A09137
:100CD0003403B091350326B5A89B05C02F3F19F00A
:100CE0000196A11DB11D3FBFBA2FA92F982F8827AC
:100CF000820F911DA11DB11DBC01CD0142E0660F07
:100D0000771F881F991F4A95D1F708958091210375
:100D1000E0912603F0912703882349F0CF01029642
:100D20009093270380932603859194910895CF0192
:100D300002969093270380932603808191810895E2
:100D40002F923F924F925F926F927F928F929F92DB
:100D5000AF92BF92CF92DF92EF92FF920F931F93C9
:100D6000CF93DF93CDB7DEB727970FB6F894DEBFEA
:100D70000FBECDBF9B838A836A30A1F4DC015C96F1
:100D80002C915C9758968D919C915997B8E02B9F28
:100D9000800D911D1124EA81FB81918F808F178A2C
:100DA000168AC1C06D3009F4BEC0AA81BB815C96B1
:100DB0004C915C975B966C905B976E825A967C9098
:100DC0005A977F825896CD90DC90599756968D9180
:100DD0009C91579780389105C4F0AA81BB815C969D
:100DE0002C915C97422F50E056968D919C9157978D
:100DF000B6E02B9F800D911D1124EA81FB81978B1A
:100E0000868B258D21117AC08EC0F0E4CF16D104D7
:100E100024F79C0155E0459F200D311D1124121629
:100E20001306DCF6242E312C9601A8E04A9F200DF3
:100E3000311D11241216130684F6B5E06B9FB00124
:100E40001124FB01E551FB4F2F0150E0F201B4905A
:100E5000553009F4B12C7601B8E09B2EB0FC02C0ED
:100E60008E8001C08F8081100BC06E807F806710E4
:100E700007C0B6949A94E20CF31C9110EFCF33C0E4
:100E80009C012983622F681B641798F7B701E62F2E
:100E9000EE19E41728F520383105F8F460347105AF
:100EA000E0F48B01E3EEF4E0A0E16A2E7980609E2D
:100EB000D001A0781124A70D0770E00FF11DA490B8
:100EC000BD83AC83A35CBC4F882019F0EC91AE2AA3
:100ED00003C0A094EC91AE22AC926F5F7F4FD7CF4E
:100EE0002F5F3F4FCECF5F5F820D931D92012F5F2B
:100EF0003F4F2901563009F0A9CF6FCF6AEF640345
:100F00009001659F300D112420583F4F2817390755
:100F100054F48A819B81DC01ED91FC910190F08178
:100F2000E02D6AE0099581E090E027960FB6F894ED
:100F3000DEBF0FBECDBFDF91CF911F910F91FF900C
:100F4000EF90DF90CF90BF90AF909F908F907F9069
:100F50006F905F904F903F902F900895089508955F
:100F600080E090E008950E94031290E008950F93AE
:100F70001F93CF93DF931F92CDB7DEB78C01FC0197
:100F80008485958597FF0EC0CE0101960E941412AC
:100F9000019719F4298130E002C02FEF3FEFF801EB
:100FA00035872487F801848595850F90DF91CF914F
:100FB0001F910F910895CF93DF931F92CDB7DEB7A6
:100FC000FC018485958597FD05C02FEF3FEF3587A0
:100FD00024870BC0CE0101960E941412019719F4C8
:100FE000898190E002C08FEF9FEF0F90DF91CF914A
:100FF0000895615030F02091F100FC0120830196AA
:10100000F8CF289884E680933B030895DC01ED91A6
:10101000FC910190F081E02D0994CF93DF93DB01E7
:10102000482F50E0FA01EA5DF54F9491FA01E95F2B
:10103000F54F2491222399F030E0220F331FF9015C
:10104000E551F64FC591D491F901E750F64F25913E
:1010500034912FB7F894E881E92BE8832FBF1097DC
:1010600011F460E004C0AF3FB10529F461E0DF9105
:10107000CF910C94FE05FA01EB5BF54FE4914E2FF6
:1010800050E0FA013197EF30F10508F06CC0EB59F0
:10109000FF4F0C948D2384B5806884BDA7BD68C0C4
:1010A00084B5806284BDA8BD63C0809180008068E3
:1010B00080938000B0938900A093880059C08091EC
:1010C0008000806280938000B0938B00A0938A00A0
:1010D0004FC080918000886080938000B0938D0025
:1010E000A0938C0045C08091900080688093900010
:1010F000B0939900A09398003BC0809190008062CB
:1011000080939000B0939B00A0939A0031C080918F
:101110009000886080939000B0939D00A0939C0005
:1011200027C08091C00080688093C0008091C0007B
:101130008F7B8093C000A093CF001AC08091C00025
:1011400080628093C000A093D00012C08091C20042
:1011500088608093C2008091C2008B7F8093C20020
:10116000A093D20005C0A038B1050CF07FCF79CF95
:10117000DF91CF9108958F929F92AF92BF92CF92BD
:10118000DF92EF92FF926B017C010E9461064B019E
:101190005C01C114D104E104F104F1F00E94610684
:1011A000DC01CB0188199909AA09BB09883E934043
:1011B000A105B10570F321E0C21AD108E108F108D8
:1011C00088EE880E83E0981EA11CB11CC114D104C6
:1011D000E104F10419F7DDCFFF90EF90DF90CF909D
:1011E000BF90AF909F908F9008958F929F92AF92F3
:1011F000BF92CF92DF92EF92FF920F931F93CF9304
:10120000DF935C016B017A0180911601882309F458
:101210005BC080913C03882309F456C08091E502AD
:1012200080FF05C08091E00082608093E000E701CC
:1012300010E00AEF83E0882E9AE3992E2097D9F1E7
:101240000E94031281110AC0015009F43DC061E0FF
:1012500070E080E090E00E94BB08F0CF282F30E0E3
:10126000C217D3070CF48C2F4FB7F8948092E90083
:101270009091E80095FF1DC0282F30E0C21BD30BD2
:10128000F601982F915020F081918093F100FACFD0
:10129000C20ED31E112319F09092E80009C080916C
:1012A000E80085FD06C09092E80011E0209709F063
:1012B00010E04FBFC3CF1111C3CF5D9884E6809378
:1012C00036031E141F0444F081E090E0F50193837F
:1012D000828380E090E001C0C701DF91CF911F9130
:1012E0000F91FF90EF90DF90CF90BF90AF909F90C5
:1012F0008F9008951F920F920FB60F9211242F9383
:101300003F938F939F93AF93BF938091E702909108
:10131000E802A091E902B091EA023091310323E0A2
:10132000230F2D3720F40196A11DB11D05C026E81D
:10133000230F0296A11DB11D209331038093E70274
:101340009093E802A093E902B093EA0280913203FD
:1013500090913303A0913403B09135030196A11D00
:10136000B11D8093320390933303A0933403B09361
:101370003503BF91AF919F918F913F912F910F9026
:101380000FBE0F901F9018951F920F920FB60F92DD
:101390001124CF92DF92EF92FF920F931F932F931E
:1013A0003F934F935F936F937F938F939F93AF93ED
:1013B000BF93CF93DF93EF93FF9380912D03909191
:1013C0002E03A0912F03B0913003892B8A2B8B2BF6
:1013D00089F180912C0381110BC098B180E4892799
:1013E00088B980912B03882319F088B1805888B977
:1013F00080912D0390912E03A0912F03B091300383
:10140000181619061A061B060CF0B1C080912D03A0
:1014100090912E03A0912F03B09130030197A10961
:10142000B10980932D0390932E03A0932F03B093C3
:1014300030039DC00E948606811520E8920761F462
:10144000809171008D7F8093710010929100469879
:10145000479810922A038BC021E020932A03813001
:1014600020E8920751F480912803909129039093EA
:101470002703809326030E94860697FD05C02091CE
:101480002503222309F43FC02091240321113BC0EE
:1014900021E020932B03EC01DF77209769F481E0B2
:1014A00080932C0346983FE9C32E3FE0D32EE12CD6
:1014B000F12CCAEFD0E014C08E0120E030E060E4EF
:1014C00072E48FE090E0A90198010E941E22690158
:1014D0007A0181E0C81AD108E108F10810922C03C2
:1014E000E0912203F09123030995811103C081E06B
:1014F00080932C0380912B038823B9F180912C03D6
:10150000811133C003C010922B03C5CF46992DC063
:10151000479A0E948606009771F09C01DE010E94A6
:10152000A922DC01CB0129E0B595A7959795879570
:101530002A95D1F703C08FEF9FEFDC011092900046
:101540002AE020939100D0929900C0929800809355
:101550002D0390932E03A0932F03B093300380911B
:10156000710082608093710002C04798D2CFFF91D2
:10157000EF91DF91CF91BF91AF919F918F917F912B
:101580006F915F914F913F912F911F910F91FF901C
:10159000EF90DF90CF900F900FBE0F901F90189597
:1015A0004F925F926F927F928F929F92AF92BF9273
:1015B000CF92DF92EF92FF920F931F93CF93DF931F
:1015C00000D000D0CDB7DEB749012C2DA02EB12C14
:1015D000DC01AA0DBB1D1A161B060CF0B3C1803826
:1015E00091050CF0AFC1FB01EE0DF11D1E161F069B
:1015F0000CF0A8C1603471050CF0A4C1411551056F
:1016000009F4A0C1FB0177FF04C0EE27FF27E61B0A
:10161000F70B3E2F3770732EFB0177FD379633E0C3
:10162000F595E7953A95E1F73E2F77FF07C07720CC
:1016300029F03FEF3E0F68E06719762E97FF05C04F
:10164000EE27FF27E81BF90B02C0E0E0F0E0A0382E
:10165000B10524F060E8F62EF81A01C0F02EFE1A4B
:10166000632F032E000C770B3F3F1CF4A62FA09591
:1016700001C0A0E011E0BE2DB77009F410E0E694BF
:10168000E694E694E10E6E0D711D693071051CF053
:1016900068E0E62EE31AEA1A3A0F60E83603800D96
:1016A000911D11248E0F9F1FA09FE00DF11D11248D
:1016B0004E0F5F1F61E070E0072C02C0660F771FBE
:1016C0000A94E2F7233009F4FCC098F4213009F4BD
:1016D000AEC0223009F036C12FEF269F8001279F30
:1016E000100D1124009510951C830B835C80E30E74
:1016F00027C02A3F29F02B3F09F024C1E30E83C005
:10170000E30E4EC0FA01EC0DFD1DE491E69F400191
:10171000E79F900C11249A82898237FD04C02C9196
:101720002023822A8C92711014C0EFEFCE1ADE0AA9
:101730001196CF1438F33F5F4A0D5B1D80589F4FC1
:101740003E1509F4FFC0DC01A35CBC4FC12CD12CB9
:10175000F0CF373054F7FD01E058FF4F20812521AD
:101760009A8029292083E1CFFA01E00FF11FE4914B
:10177000E69F6001E79FD00C1124DA82C98237FD11
:1017800003C02C91C22ACC92711013C00F5F1F4F5F
:1017900011960F1548F33F5F4A0D5B1D80589F4F10
:1017A0003E1509F4CFC0DC01A35CBC4F00E010E0A3
:1017B000F0CF37305CF7FD01E058FF4FD0802A8131
:1017C0002D292083E3CFFA01EC0DFD1DE491E69F66
:1017D000D001E79FB00D1124BA83A98337FD05C05E
:1017E000A095F8012081A223A083711015C0FFEFFE
:1017F000CF1ADF0A0F5F1F4FCF1428F33F5F4A0D48
:101800005B1D80589F4F3E1509F49CC08C01035C02
:101810001C4FC12CD12CF0CF37304CF7F801E058D9
:10182000FF4F2A812095A0812A232083E0CFD40175
:10183000AE0FBF1FE30E3E1509F484C0FC01E35C4C
:10184000FC4F4F01C12CD12CCF1498F5FD01EC0DAC
:10185000FD1DE491E69F8001E79F100D1124009586
:1018600010951C830B83FA01EC0DFD1DE491E69F9E
:101870002001E79F500C11245A82498237FD05C090
:10188000F40120810223402A4082772059F037302A
:101890004CF4F401E058FF4F10812C8121231A8170
:1018A000212B2083FFEFCF1ADF0A2FEF821A920A33
:1018B000CBCF3F5F4A0D5B1DAA0DBB1D80589F4FCC
:1018C000BACFCF2CD12CE40FF51FDC01A35CBC4FA9
:1018D000AC0143545C4F00E810E00C191D09AC1832
:1018E000BD08AA0CBB1C6F2C2E2DCF93DF93EA01F1
:1018F0008590C590772059F0869E4001C69E600174
:1019000037302CF49881D0949D21992999933323D1
:101910003AF09C91C0949C2198299D930C94910C31
:101920001196FA9429F7EA9451F0F62C3395112484
:10193000EA0DF11DA00FB11DC00FD11DD9CFDF9150
:10194000CF9111240F900F900F900F90DF91CF91B6
:101950001F910F91FF90EF90DF90CF90BF90AF90CD
:101960009F908F907F906F905F904F9008952D9AE9
:101970000895BC0180E090E00C94BB088FB12CB1BD
:1019800093B130E02095309520743327A90123E0EE
:10199000559547952A95E1F7292F30E02095309508
:1019A000207133273595279535952795242B8095DC
:1019B000807F822B089583B7817F83BF83B7816047
:1019C00083BF889583B78E7F83BF08958EBD000047
:1019D0000DB407FEFDCF08956115710579F0FB0187
:1019E00001900020E9F73197AF01461B570BDC014E
:1019F000ED91FC910280F381E02D099480E090E06C
:101A000008954F925F926F927F92EF92FF920F93A1
:101A10001F93CF93DF93CDB7DEB7A1970FB6F8949E
:101A2000DEBF0FBECDBF7C01FA01CB0119A222306F
:101A300008F42AE08E010F5D1F4F422E512C612CBD
:101A4000712CBF01A30192010E948722F901CA01F2
:101A5000015011096A3014F4605D01C0695CD8015D
:101A60006C93232B242B252B61F7B801C7010E940F
:101A7000EC0CA1960FB6F894DEBF0FBECDBFDF9180
:101A8000CF911F910F91FF90EF907F906F905F909B
:101A90004F9008954091390350913A0320913703B4
:101AA0003091380342175307B4F49091E8009570D1
:101AB000E1F39091E80092FD19C08093F1008091CC
:101AC000390390913A0301968F739927892B19F462
:101AD0008EEF8093E8008091390390913A0301964C
:101AE00090933A038093390381E0089580E008954C
:101AF000DF92EF92FF920F931F93CF93DF93D82E35
:101B00008A017B01E40EF51EEB01CE15DF0571F0B5
:101B1000D7FE03C0FE01849101C088810E944A0D56
:101B200021968111F2CF8FEF9FEF01C0C801DF91A5
:101B3000CF911F910F91FF90EF90DF9008950E9439
:101B40008A250F931F93CF93DF93EC0188819981AE
:101B5000009729F02A813B812617370788F48B01EB
:101B60006F5F7F4F0E94C024009761F09983888344
:101B70001B830A832C813D81232B11F4FC011082ED
:101B800081E001C080E0DF91CF911F910F91089516
:101B9000EF92FF920F931F93CF93DF93FC01248169
:101BA00035816115710511F480E019C041155105A9
:101BB000A9F07B01EC018A01020F131FB8010E94FA
:101BC000A10D882389F3288139818C819D81B701FA
:101BD000820F931F0E9498251D830C8381E0DF9163
:101BE000CF911F910F91FF90EF900895CF93DF93C6
:101BF000EC0188819981009711F00E9428241982B4
:101C000018821D821C821B821A82DF91CF91089557
:101C10000F931F93CF93DF931F92CDB7DEB782E070
:101C2000898342E450E064E67AE080E80E94780D1F
:101C30000E943E12DC0112960D911C911397011522
:101C4000110569F0D801ED91FC910280F381E02D3E
:101C5000BE016F5F7F4FC801099597FF07C089815B
:101C60000F90DF91CF911F910F910895F80100859A
:101C70001185E5CFCF93DF93EC016115710561F01C
:101C8000FB0101900020E9F73197AF01461B570B8C
:101C90000E94C80D811103C0CE010E94F60DCE0135
:101CA000DF91CF910895CF93DF93EC01FB01448145
:101CB0005581608171810E94C80D811103C0CE01E0
:101CC0000E94F60DCE01DF91CF910895EF92FF9221
:101CD0000F931F93CF93DF93EC017B018A01BA012D
:101CE0000E94A10D811104C0CE010E94F60D07C013
:101CF0001D830C83B701888199810E949825CE01AC
:101D0000DF91CF911F910F91FF90EF900895CF93A6
:101D1000DF93EC016115710559F0FB010190002082
:101D2000E9F73197AF01461B570B0E94660E02C0C0
:101D30000E94F60DCE01DF91CF910895FC018081C4
:101D400091810C9428240F931F93CF93DF93CDB7E9
:101D5000DEB762970FB6F894DEBF0FBECDBF8C0121
:101D6000CB01F80111821082138212821582148233
:101D700050E0BE016F5F7F4F0E940D1EBE016F5F7E
:101D80007F4FC8010E94870E62960FB6F894DEBF9F
:101D90000FBECDBFDF91CF911F910F910895FC0130
:101DA00011821082138212821582148261157105CC
:101DB00051F0FB0101900020E9F73197AF01461B7C
:101DC000570B0C94660E08951F920F920FB60F9248
:101DD00011248F939F938091E1009091E100937F74
:101DE0009093E10083FF0FC01092E90091E090937F
:101DF000EB001092EC0092E39093ED0010923C0304
:101E000098E09093F00082FF20C093E09093E90067
:101E10009091F200992319F09AE39093E800909141
:101E20003603992339F090913603915090933603FD
:101E3000992389F190913B03992339F090913B03C9
:101E4000915090933B03992341F184FF10C08091FE
:101E5000E2008E7E81608093E2008091E1008F7EBF
:101E60008093E1008091E5028E7E806111C080FF49
:101E700016C08091E2008E7E80618093E2008091A6
:101E8000E1008E7E8093E1008091E5028E7E81608C
:101E90008093E50204C05D9ACDCF289AD6CF9F915A
:101EA0008F910F900FBE0F901F9018951F920F9259
:101EB0000FB60F921124CF92DF92EF92FF920F9301
:101EC0001F932F933F934F935F936F937F938F93C2
:101ED0009F93AF93BF93EF93FF93CF93DF93CDB7D0
:101EE000DEB76C97DEBFCDBF1092E9008091E800AD
:101EF00083FFEDC168E0CE0145960E94F90782EFAD
:101F00008093E8008D8987FF05C09091E80090FFDD
:101F1000FCCF03C09EEF9093E800982F907609F0D5
:101F2000C6C09E892F89188D91110CC0803829F464
:101F30008091E6028093F10002C01092F1001092AD
:101F4000F10048C1422F50E0512B913051F48111E2
:101F500041C14130510509F03DC18091E6028D7FBC
:101F60000BC0933061F4811135C14130510509F046
:101F700031C18091E60282608093E6022BC19530E8
:101F800041F48091E80080FFFCCF20682093E300BB
:101F900021C1963009F05FC0EB8CFC8C1092E900F7
:101FA00010923A0310923903123091F510923803CF
:101FB000109237030E94080E99E0BE016F5F7F4FB9
:101FC000DB01E92F1D92EA95E9F799831A8391E0E5
:101FD0009E8390EA98879AEF9987209139033091F0
:101FE0003A03275F3F4F3C832B838D831092E90098
:101FF00010923A0310923903F0923803E0923703BB
:1020000049E050E080E00E94780D0E94080EE2C096
:10201000F0923803E09237030E943E12DC011296E0
:10202000ED90FC901397E114F10409F4C0C0D701BE
:10203000ED91FC910480F581E02DBE016B5E7F4F38
:10204000C7010995009719F00CF0C4C0C7C0F7018B
:10205000E084F184E8CF973009F4C0C0983021F4CF
:1020600081E08093F100B6C0993009F0B3C083706D
:1020700009F0B4C0E2E2F1E081E021E036E39081D2
:10208000992361F08093E9002093EB009191909364
:10209000EC003093ED008F5F873089F78EE78093F7
:1020A000EA001092EA008F8980933C0393C08B8DE5
:1020B0009C8D1092E90010923A031092390390938C
:1020C000380380933703898D811156C08E899D898D
:1020D000913A59F4813209F081C047E050E06FE055
:1020E00071E080E00E94780D75C0913209F076C0F1
:1020F000833289F4888D90E0982F88272F89822B4E
:10210000A0E0B0E080930B0190930C01A0930D012F
:10211000B0930E015FC0803269F48091E80082FFC5
:10212000FCCF67E08FE091E00E94F9078BEF80938E
:10213000E80006C0823209F04DC08F8980931601F5
:102140008091E402882319F0EEEFFAE002C0E0E0AB
:10215000F8E080910F0190911001A0911101B091D0
:102160001201803B9440A105B10509F07BC080912C
:10217000160180FF93C076C00E943E12DC011296C9
:102180000D911C9113970115110541F1D801ED91A5
:10219000FC910190F081E02DBE016B5E7F4FC80184
:1021A0000995811117C0F80100851185ECCF113018
:1021B00009F44EC0133091F48F89882309F445C087
:1021C000823081F440E860E188EC9AE00E94191DB9
:1021D000882321F08EEF8093E80079C081E280931C
:1021E000EB0075C0813029F440E86BE08CEB9AE09D
:1021F000EDCF833099F70E943E12DC011296ED90EC
:10220000FC9013978E010F5F1F4F6801E114F104DA
:1022100079F0D701ED91FC910680F781E02DB801AE
:10222000C7010995080F111DF701E084F184EECF75
:10223000D8011C92F60101900020E9F73197BF0107
:102240006C197D0940E0C601C1CF66EA7AE002C0A0
:102250006AEA7AE06115710509F2FB01449150E0E8
:1022600080E840CF0FB6F894A8958091600088610F
:1022700080936000109260000FBEA895EE3F2AE0A8
:10228000F20739F08091FE0A9091FF0A91838083D2
:10229000A1CF1092FF0A1092FE0A9CCFEE3F8AE077
:1022A000F80731F0808191819093FF0A8093FE0AB4
:1022B00087E797E7918380839BE088E10FB6F894E6
:1022C000A895809360000FBE9093600083CF6C96BA
:1022D0000FB6F894DEBF0FBECDBFDF91CF91FF9157
:1022E000EF91BF91AF919F918F917F916F915F918E
:1022F0004F913F912F911F910F91FF90EF90DF90A1
:10230000CF900F900FBE0F901F901895BC018FE8D3
:1023100097E00C94EC0CFC01448155816081718143
:102320008FE897E00C9498051F93CF93DF93162FB7
:10233000CFEFD0E0BE01681B71098AE00E940D0852
:10234000BE01611B71098BE00E940D086FEF70E008
:1023500089E0DF91CF911F910C940D08CF92DF920D
:10236000EF92FF920F931F93CF93DF936B01770F41
:10237000EE08FF08F7FE1BC0EC016DE20E940608A4
:102380008C0144275527BA014C195D096E097F0954
:102390002AE0CE010E94010D800F911FDF91CF91A5
:1023A0001F910F91FF90EF90DF90CF9008952AE05A
:1023B000B701A601DF91CF911F910F91FF90EF9090
:1023C000DF90CF900C94010D80E0EDE3F3E08111FC
:1023D0008FEF002481938193819381930394D1F7AC
:1023E000089580913D038EBDEEE3F3E081910DB43D
:1023F00007FEFDCF8EBD87E0ED33F807B9F70DB4CA
:1024000007FEFDCF08952FB7F89483E08093E9008D
:102410009091E800892F807295FF04C09091F2009E
:1024200080E4891B2FBF0895FC0180913C0381113A
:1024300003C08FEF9FEF08959FB7F89482E08093D9
:10244000E9002091F20030E01216130614F421E0A6
:1024500030E02115310559F0289884E680933B033C
:102460008091F10080838091F200882319F09FBF52
:10247000C90108958BE68093E800F9CF8091B107F8
:1024800081110DC082E08093AD0784E08093AE0798
:102490001092B0071092AF0781E08093B1078DEAE8
:1024A00097E00895CF93DF93CDB7DEB7E2970FB6ED
:1024B000F894DEBF0FBECDBF789484B5826084BD32
:1024C00084B5816084BD85B5826085BD85B5816038
:1024D00085BD80916E00816080936E0010928100B6
:1024E0008091810082608093810080918100816071
:1024F0008093810080918000816080938000809132
:10250000910082608093910080919100816080931E
:102510009100809190008160809390008091C10033
:1025200084608093C1008091C10082608093C1006B
:102530008091C10081608093C1008091C30081605F
:102540008093C3008091C00082608093C00080911E
:10255000C20081608093C20080917A008460809381
:102560007A0080917A00826080937A0080917A006C
:10257000816080937A0080917A00806880937A00ED
:1025800010923C031092E6021092E5028091D7006F
:1025900081608093D70080EA8093D80089B58061FC
:1025A00089BD89B5826089BD09B400FEFDCF61E0B7
:1025B00070E080E090E00E94BB088091D8008F7CA2
:1025C00080618093D8008091E000807F8093E0005C
:1025D0008091E1008E7E8093E1008DE08093E200A7
:1025E000559A209AEEEFFFE7859194918B3F9C4D91
:1025F00019F481E08093E40281EC80937C0085B142
:10260000806F85B9249884B1866E84B95E9A5F988C
:102610008AB1806D8AB9769A6E9881B3806F81BBDA
:10262000899880B38D7080BB80E58CBD81E08DBDC5
:1026300085E090E00E94B90C5F9A85E090E00E94EE
:10264000B90C5E985C9802E912E0BDE0FB2EF00E3A
:10265000F80184910E94E60C0F5F1F4FF012F8CF33
:102660005C9A81E88093640081E08093650000E0DB
:1026700014E080E00E94E60C01501109D1F70E949D
:10268000BE0C87FF1FC05C9885EA0E94E60C5C9A2E
:102690002E982F982D98809164008062809364001A
:1026A0000E94DB0CFDCF2D980E94BE0C84788438EC
:1026B00071F00E94BE0C8471843131F188EC90E09D
:1026C0000E94B90C0E94BE0C82FDEDCF3AC00E9460
:1026D000B70C88EC90E00E94B90C2F9882E090E053
:1026E0000E9408228F3F29F06FEF82E090E00E9465
:1026F000102284EF91E00E94B90C2F9A0E94BE0C28
:1027000084788438D9F3D5CF0E94B70C88EC90E058
:102710000E94B90C2E9882E090E00E940822882343
:1027200029F060E082E090E00E94102284EF91E0C6
:102730000E94B90C2E9A0E94BE0C84718431D9F388
:10274000BDCF0E94B70C82E090E00E94082288234F
:1027500031F03E9A3F9A81E08093EB0204C01092E0
:10276000EB023E983F982E980EEE1FEFA8E0AA2E9F
:10277000B12C0E94BE0C86FF04C02E9A2F9A2D9A6F
:102780008CC00C3FFFEF1F0719F42E9A2F9805C03D
:102790000831110511F42F9A2D980E94E411003F81
:1027A0002FEF120784F40E94F1118BE190E00E9458
:1027B000B90C003F3FEF130709F059C08AEF90E0D2
:1027C0000E94B90C54C0980117FF04C02227332778
:1027D000201B310B27703327C80117FD0796F3E044
:1027E00095958795FA95E1F717FF05C00197A50123
:1027F000421B530B9A017C01F694FE2CEE24F794B5
:10280000E79460E070E03501621A730AD701A058BE
:10281000BF4F4D018F3FBFEF9B0744F40196685AAD
:102820007F4F7401603B710589F7BDCFD701AF526F
:10283000BC4F40E050E08F3FEFEF9E0709F4CFC45C
:10284000FA01E60FF71FEE51FE4FE4916D01C81833
:10285000D908CE0CDF1CF0E01F01022E01C0220CB3
:102860000A94EAF7F601508025282082B8C40F5F49
:102870001F4F0931110509F07CCF8CEB92E00E94CB
:10288000B90C0E94B70CE0919307F0919407019066
:10289000F081E02D83E997E0099582E390E00E94C2
:1028A000B90C0E94BE0C8111F8CF0E94E411109265
:1028B000A8071092A7071092A6071092A5078FEFFE
:1028C0009FEF90934A07809349077CE3272E312C92
:1028D000AA24A394B12C2FB7F8948091E702909189
:1028E000E802A091E902B091EA022FBF40919F0750
:1028F0005091A0076091A1077091A2072091A307B2
:10290000222341F020919B07821B8093A407109201
:10291000A3075DC484179507A607B70738F4481BBB
:10292000423008F454C40E94DB0C51C421E02093CF
:10293000A30780939B0790939C07A0939D07B09358
:102940009E0720919A07820F911DA11DB11D8093B2
:102950009F079093A007A093A107B093A20780912F
:102960009607909197070196909397078093960703
:1029700020911103309112032F5F3F4F30931203C8
:102980002093110363E070E00E946523892B29F4F2
:10299000809110038F5F8093100380911003863025
:1029A00018F082E0809310030E94E4111092A807AF
:1029B0001092A7071092A6071092A507809198077A
:1029C000809399070E94BE0C8093980780910F0313
:1029D00081114FC00E94BE0C83FF04C081E0809330
:1029E0000F0349C40FE010E01093A6070093A5075A
:1029F00085E090E09093A8078093A70780E591E099
:102A00000E9486111093A6070093A50789E190E024
:102A10009093A8078093A7078CE591E00E94861108
:102A20001093A6070093A50783E290E09093A80770
:102A30008093A70784E691E00E9486111093A60771
:102A40000093A5078DE290E09093A8078093A707D5
:102A500081E791E00E9486111093A6070093A507D5
:102A600087E390E09093A8078093A7078FE791E012
:102A70005AC20091090110910A010130110509F0B3
:102A80006FC00E94BE0C87FF0DC080910C0388238D
:102A900031F082E090E090930A0180930901109256
:102AA0000C038BC30E94BE0C84FF0BC080910C03EF
:102AB0008823A9F310930A010093090110920F03D0
:102AC000EECF81E080930C0354E1E52EF12CF092DF
:102AD000A607E092A5071092A8071092A70789E819
:102AE00091E00E94861105E010E01093A607009384
:102AF000A5078AE090E09093A8078093A70789E94B
:102B000091E00E9486111093A6070093A507F0920A
:102B1000A807E092A70789EA91E00E948611109326
:102B2000A6070093A5078EE190E09093A8078093F5
:102B3000A70789EB91E00E9486111093A6070093E6
:102B4000A50788E290E09093A8078093A7078AECF6
:102B500091E00E9486111093A6070093A5076DC00F
:102B60000230110509F072C00E94BE0C87FF0CC034
:102B700080910C03882309F492CF23E030E0309356
:102B80000A01209309018BCF0E94BE0C84FF0AC06A
:102B900080910C03882309F482CFB0920A01A0929D
:102BA00009017DCF81E080930C0304E110E01093D4
:102BB000A6070093A5071092A8071092A70785EF14
:102BC00091E00E948611B092A607A092A5078AE024
:102BD00090E09093A8078093A70785E092E00E9479
:102BE0008611B092A607A092A5071093A80700939C
:102BF000A70784E192E00E948611B092A607A092F6
:102C0000A5078EE190E09093A8078093A70785E23F
:102C100092E00E948611B092A607A092A50788E2D2
:102C200090E09093A8078093A70788E392E00E9422
:102C30008611B092A607A092A50782E390E0909338
:102C4000A8078093A70786EE91E06DC103301105B8
:102C500009F04EC00E94BE0C87FF0AC080910C0391
:102C6000882309F41CCF10920A011092090117CF92
:102C70000E94BE0C84FD09CF81E080930C0384E1A7
:102C800090E09093A6078093A5071092A807109252
:102C9000A7078AE492E00E94861105E010E01093F5
:102CA000A6070093A5078AE090E09093A807809379
:102CB000A7078AE592E00E9486111093A607009369
:102CC000A50788E290E09093A8078093A7078AE67B
:102CD00092E00E9486111093A6070093A50782E355
:102CE00090E09093A8078093A70786E792E01BC126
:102CF00080910E03882309F419C10E94BE0C87FF3E
:102D00000CC00E94BE0C87FFA7C20E94BE0C86FFAB
:102D1000A3C20E94BE0C84FF9FC28091050388233A
:102D200059F160910303709104036230710524F13D
:102D3000072E000C880B990B0E94EB202AE939E939
:102D400049E95EE30E944A219B01AC0160910803BE
:102D50007091090380910A0390910B030E94B9229C
:102D6000609308037093090380930A0390930B0305
:102D700010920403109203030FE010E01093A607D3
:102D80000093A50785E090E09093A8078093A7079C
:102D900085E892E00E9486111093A6070093A5078C
:102DA0001093A8070093A707609108037091090387
:102DB00080910A0390910B031AA619A61CA61BA6C4
:102DC0001EA61DA68E010F5F1F4F22E044E00E9449
:102DD000911DBC01CE0189960E94870E1A8219822C
:102DE0001C821B821E821D8269A57AA56115710550
:102DF00029F04DA55EA5C8010E94660E66E972E045
:102E0000CE0101960E943A0E0E948B11CE010196CE
:102E10000E949E0ECE0189960E949E0E8FE090E049
:102E20009093A6078093A50789E190E09093A80767
:102E30008093A707C0900803D0900903E0900A038D
:102E4000F0900B030091010310910203B801012ED1
:102E5000000C880B990B0E94EB209B01AC01C70171
:102E6000B6010E945B2387FDD9C1C701B6010E944C
:102E7000252370930203609301031AA619A61CA6CA
:102E80001BA61EA61DA68E010F5F1F4F22E044E069
:102E9000C701B6010E94911DBC01CE0189960E9416
:102EA000870E6EE972E0C8010E94CF0EBE01675D19
:102EB0007F4FC8010E94530E0E948B11C8010E94CF
:102EC0009E0ECE0189960E949E0E809111039091D4
:102ED0001203B1010E947923009709F09BC16FEFA3
:102EE00080E00E94941160E080E00E9494110FE065
:102EF00010E01093A6070093A5078DE290E0909351
:102F0000A8078093A70780EB92E00E948611109398
:102F1000A6070093A50787E390E09093A807809306
:102F2000A70781EC92E00E94861147C180E180935F
:102F30009A070E94BE0C82FFA1C10E94BE0C84FFB2
:102F40009DC10E94BE0C85FF99C10E94BE0C87FFE7
:102F500095C110920F03B0920A01A092090110923C
:102F60000E03109208031092090310920A031092A4
:102F70000B03109207031092060381E080930D0368
:102F80008EE690E09093A6078093A50787E390E0F4
:102F90009093A8078093A7076091FD027091FE02AD
:102FA0008FE897E00E94AE1186E490E09093A60728
:102FB0008093A5071092A8071092A70720E030E0A1
:102FC00040E851E4609108037091090380910A037D
:102FD00090910B030E944A216B017C010091010337
:102FE00010910203B801012E000C880B990B0E946E
:102FF000EB209B01AC01C701B6010E945B231816B0
:103000000CF041C020E030E0A901C701B6010E94E8
:103010005B2320E030E040E05FE387FD05C0C701AF
:10302000B6010E94B92204C0C701B6010E94B822AD
:103030000E9425231AA619A61CA61BA61EA61DA61D
:103040002AE0AE014F5F5F4F0E94231EBE016F5FFB
:103050007F4FCE0189960E94870E69EA72E0CE0109
:1030600001960E94CF0EBE01675D7F4FCE01019693
:103070000E94530E0E948B11CE0101960E949E0E5B
:10308000CE0189961BC04AE0B801CE0101960E948C
:10309000A30E69EA72E0CE0189960E94CF0EBE01AE
:1030A0006F5F7F4FCE0189960E94530E0E948B1155
:1030B000CE0189960E949E0ECE0101960E949E0E20
:1030C0001092A6071092A5071092A8071092A707C2
:1030D00020E030E040E851E460910803709109037A
:1030E00080910A0390910B030E944A216B017C019D
:1030F00020E030E0A9010E945B2320E030E040E0C6
:103100005FE387FD05C0C701B6010E94B92204C074
:10311000C701B6010E94B8220E9425231AA619A64B
:103120001CA61BA61EA61DA62AE0AE014F5F5F4F80
:103130000E94231EBE016F5F7F4FCE0189960E94C1
:10314000870ECE0189960E948B11CE0189960E942E
:103150009E0E1092A6071092A50787E390E0909329
:10316000A8078093A70760918D0770918E074AE0AA
:10317000CE0189960E94A30E1A8219821C821B829C
:103180001E821D8269A57AA56115710531F04DA5D4
:103190005EA5CE0101960E94660E68ED72E0CE013A
:1031A00001960E943A0E0E948B11CE0101960E9458
:1031B0009E0ECE0189960E949E0E40E054E06DE383
:1031C00073E08DE397E00E94F5080E94F11180E022
:1031D00090E0892B09F47FCB0E94000079CB211568
:1031E000310581F0FA01E60FF71FEE51FE4FE49131
:1031F000F0E0062C02C0F595E7950A94E2F7DC9022
:10320000ED29EC934F5F5F4F11964835510509F05A
:1032100012CB04CB4E9709F066CE61CE4AE0B801DE
:10322000CE0189960E94A30E69EA72E0CE01019652
:103230000E94CF0EBE01675D7F4FCE0101960E94B6
:10324000530E0E948B11CE0101960E949E0ECE015C
:1032500089960E949E0E4BCE10920E031092080388
:103260001092090310920A0310920B0310920703A5
:103270001092060381E080930D039FCF0E94BE0C45
:1032800082FF04C00E94BE0C84FD13C0809196078B
:1032900090919707B1010E946523892B79F4809161
:1032A000060390910703019690930703809306030A
:1032B00005C00E94BE0C85FDE8C1E8CF8091FB02ED
:1032C0009091FC0201969093FC028093FB02809106
:1032D000FD029091FE02181619062CF401979093A6
:1032E000FE028093FD020E94BE0C83FF0FC08091FE
:1032F0000301909104018034910544F08091FD0216
:103300009091FE02181619060CF037C20E94FF1D9C
:1033100023E030E040E050E00E941E227093FA0269
:103320006093F9028090FF029090000333E78316C8
:1033300091043CF442E0841691043CF4719561954B
:1033400071097093080160930701809103019091C6
:1033500004018D3F9F4FA4F480E490E0909304011A
:103360008093030160E08FEF0E9494118091FB0233
:103370009091FC029093F8028093F702109205035B
:103380008091030190910401803491052CF40397FE
:103390009093040180930301E0900701F0900801ED
:1033A0008E189F08909200038092FF02809106037E
:1033B00090910703A8E5B2E0A81BB90BB0938E0764
:1033C000A0938D071A161B060CF444C060910303EA
:1033D000709104036230710524F1072E000C880BF4
:1033E000990B0E94EB202AE939E949E95EE30E9442
:1033F0004A219B01AC0160910803709109038091FF
:103400000A0390910B030E94B92260930803709302
:10341000090380930A0390930B0310920403109204
:10342000030320E030E040E851E46091080370912C
:10343000090380910A0390910B030E944A21609333
:1034400008037093090380930A0390930B0381E0B0
:1034500080930E039092F2028092F1020091050196
:10346000109106011093F4020093F3028FE0809311
:10347000F5028093F6026090010170900201709253
:10348000EE026092ED02809103019091040190930D
:10349000F0028093EF0226E0E1EFF2E0DE01939686
:1034A00001900D922A95E1F7681479040CF472C129
:1034B0009401215F3F4F621673060CF06BC18017B9
:1034C00091070CF467C19801215F3F4F8217930762
:1034D0000CF060C1809103039091040301969093D6
:1034E000040380930303DD24D394D09205036FEF8C
:1034F00080E00E94941120E030E040E85FE36091BA
:1035000008037091090380910A0390910B030E94B4
:10351000B922609308037093090380930A03909380
:103520000B038091FB029091FC029093F802809330
:10353000F70280E490E090930401809303018EE110
:1035400090E09093FE028093FD02D092EC022091D5
:1035500010032E0DB80164507109E1E6F3E0049107
:10356000E2E6F3E0E490222329F130E0220F331F5A
:10357000E02FF0E08E2D869586958695482F50E0B9
:1035800081E090E0AE2DA77011F480E090E0840F10
:10359000951FE89FD001E99FB00DF89FB00D112451
:1035A0002A9FA0012B9F500D3A9F500D11244D5979
:1035B0005C4F02C043E653E093E0C92E20E030E0C8
:1035C000C4010E94D00A6091030170910401EFE9E7
:1035D000F2E00491E0EAF2E0E490402F50E08E2D1A
:1035E000869586958695282F30E0EE2DE77081E050
:1035F00090E011F480E090E0820F931F489F9001CB
:10360000499F300D589F300D11248AE0829FA00100
:10361000839F500D11244F555D4F8AEFC82E20E037
:1036200030E0C3010E94D00A80910503609103033A
:10363000709104038111C6C0623071050CF4C0C0E2
:10364000072E000C880B990B0E94EB202AE939E920
:1036500049E95EE30E944A219B01AC0160910803A5
:103660007091090380910A0390910B030E94B92283
:10367000609308037093090380930A0390930B03EC
:1036800010920403109203039BC0B0920801A09211
:10369000070183E290E0909300038093FF028AE0A9
:1036A00090E09093060180930501B0920401A092EE
:1036B00003018AE390E0909302018093010181E08D
:1036C000809300011092FE021092FD021092FC0203
:1036D0001092FB02109207031092060348E552E095
:1036E00050938E0740938D0780910503882359F1ED
:1036F00060910303709104036230710524F1072E79
:10370000000C880B990B0E94EB202AE939E949E962
:103710005EE30E944A219B01AC0160910803709115
:10372000090380910A0390910B030E94B9226093D0
:1037300008037093090380930A0390930B0310927C
:1037400004031092030320E030E040E851E460916C
:1037500008037091090380910A0390910B030E9462
:103760004A21609308037093090380930A0390939E
:103770000B0381E080930E0303CC8FE390E09093E2
:1037800004018093030188E790E09093FE02809308
:10379000FD02BCCD8091FB029091FC022091F702CA
:1037A0003091F802821B930BCD970CF4D0CE60E0E1
:1037B00080E00E9494111092F8021092F702C7CE96
:1037C00060E070E08DE397E00E94AE1168EC72E07B
:1037D0008DE397E00E94EC0C609103037091040369
:1037E0008DE397E00E94AE1168EC72E08DE397E004
:1037F0000E94EC0C6091030370910403072E000CEF
:10380000880B990B0E94EB202AE939E949E95EE32C
:103810000E944A216B017C012B013C019B01AC0100
:103820000E946023882319F06AEC72E021C0A7018E
:1038300096015F772FA738AB49AB5AAB2FEF3FEF1D
:103840004FE75FE76FA578A989A99AA90E9460232D
:10385000811113C02FEF3FEF4FE75FE76FA578A906
:1038600089A99AA90E94E42018163CF46EEC72E033
:103870008DE397E00E94EC0C7FC02FEF3FEF4FE706
:103880005FE4C701B6010E945B2318161CF462EDC9
:1038900072E0EECF2FEF3FEF4FE75FECC701B601CD
:1038A0000E94E42087FDF3CF20E030E0A901C701AA
:1038B000B6010E94E42087FF0BC06DE28DE397E024
:1038C0000E9406082601370177FA709477F8709401
:1038D0002AE037ED43EA5BE3C301B2010E94B9225B
:1038E0002B013C010E942C236B017C010E94E920EA
:1038F0009B01AC01C301B2010E94B8222B013C0123
:103900002AE0B701A6018DE397E00E94010D6EE267
:103910008DE397E00E94060820E030E040E251E4A9
:10392000C301B2010E944A216B017C010E942C2339
:103930002B01612C712C2AE0B301A2018DE397E0E9
:103940000E94010DC301B2010E94E9209B01AC015C
:10395000C701B6010E94B82220E030E040E251E405
:103960000E944A210E942C23AB0160E070E02AE013
:103970008DE397E00E94010D68EC72E08DE397E023
:103980000E94EC0C60E070E08DE397E00E94AE11C5
:1039900068EC72E08DE397E00E94EC0C66ED72E05B
:1039A0008DE397E00E94EC0CEBCA0F931F93CF932B
:1039B000DF938C0181E090E00E94082280FF31C0FB
:1039C0008AE090E00E9408229FEF980F9E3F48F502
:1039D00022E330E0D80157963C932E93569728E384
:1039E00030E059963C932E935897CBE0D0E0D80125
:1039F000ED91FC910190F081E02D682FC8010995AF
:103A0000CE010E9408222196C131D10581F70E9482
:103A1000F11188EE93E0DF91CF911F910F910C94FB
:103A2000B90CDF91CF911F910F91089504970C94D9
:103A3000D51CCF92DF92EF92FF920F931F93CF93FB
:103A4000DF931F92CDB7DEB7182F062FE42E862FF7
:103A5000880F8E5F99830E944A0D83E00E944A0D71
:103A6000F12EC12E9981D92E8C2D8F19801798F4A3
:103A7000F601E7FE02C0849101C080810E944A0DD8
:103A8000182F80E00E944A0D8123FFEFCF1ADF0A32
:103A90008111EACF01C081E00F90DF91CF911F919A
:103AA0000F91FF90EF90DF90CF900895EDE3F7E056
:103AB0001382128288EE93E0A0E0B0E084839583C5
:103AC000A683B7838CE291E0918380838FEF9FEF91
:103AD00095878487EFE8F7E01382128211861286B9
:103AE00020E1238790878783108A118A128A138A9C
:103AF000148A8EE391E0918380838CE491E0958336
:103B00008483178A168A118E108E81E0828F138E1D
:103B1000848F158E88E592E090938E0780938D07B1
:103B20000895EF920F931F93CF93DF93E80147FD22
:103B300002C034E001C034E1E42F440FFF0BF7FF73
:103B400003C0F195E195F109E32E022F2E2FAE016E
:103B50000E946E1ECE01DF91CF911F910F91EF90C9
:103B600008958F929F92AF92BF92CF92DF92EF9281
:103B7000FF92CF93DF93EC01688179818A819B81E9
:103B8000611571058105910521F464E279ED8BE5FC
:103B900097E02DE133EF41E050E00E941E22490101
:103BA0005A019B01AC01A7EAB1E40E943D226B01DE
:103BB0007C01ACEEB4EFA50194010E944B22DC0124
:103BC000CB018C0D9D1DAE1DBF1DB7FF03C001971E
:103BD000A109B04888839983AA83BB83BC01CD0126
:103BE0009F77DF91CF91FF90EF90DF90CF90BF90C4
:103BF000AF909F908F9008950E94B11D089587E126
:103C000091E00E94B11D089560931701709318010F
:103C10008093190190931A0108954532510520F4BB
:103C2000423010F00C94181EFB011082CB01089555
:103C3000BB274A3031F4992322F4BDE29095819557
:103C40009F4F0C94551EBB272A3051F4992342F400
:103C5000BDE290958095709561957F4F8F4F9F4FF6
:103C60000C94331EBB27FA01A62F6217710581053C
:103C70009105330B30FB66F0AA27660F771F881F6C
:103C8000991FAA1FA21710F0A21B63953850A9F71D
:103C9000A05DAA3308F0A95DA19336F7B111B193E5
:103CA0001082CA010C94D420BB27FB015527AA27F8
:103CB000880F991FAA1FA41710F0A41B83955051B9
:103CC000B9F7A05DAA3308F0A95DA193009779F731
:103CD000B111B1931192CB010C94D4204F925F9209
:103CE0006F927F929F92AF92BF92CF92DF92EF92AC
:103CF000FF920F931F93CF93DF93CDB7DEB7299732
:103D00000FB6F894DEBF0FBECDBF6A01122FB02EE2
:103D10002BE3201720F0FF24F394F00E02C0BCE345
:103D2000FB2E0F2D27E0AE014F5F5F4F0E94FC1F5F
:103D3000AC018981982F9970913031F0E1FC06C077
:103D4000E0FE06C090E205C09DE203C09BE201C018
:103D500090E0EE2DE07183FF3CC0911102C083E042
:103D600001C084E0811718F4212F281B01C020E036
:103D7000E1110BC0F601822F30E2882319F0319354
:103D80008150FBCFC20ED11C20E0992329F0D6012F
:103D90009C93F60131966F01C6010396E2FE0AC0BC
:103DA0003EE4D6013C9341E411964C931197129650
:103DB0003C9306C03EE6F601308341E64183328300
:103DC000FC01322F40E2332309F442C041933150C9
:103DD000FACF82FF44C0911102C083E001C084E0A9
:103DE000811718F4212F281B01C020E0E1110BC01E
:103DF000F601822F30E2882319F031938150FBCFF6
:103E0000C20ED11C20E0992329F0D6019C93F60123
:103E100031966F01C6010396E2FE0BC039E4D6016C
:103E20003C933EE411963C93119736E412963C93F2
:103E300007C039E6F60130833EE6318336E6328349
:103E4000FC01322F40E2332319F041933150FBCF74
:103E5000FC01E20FF11D10828EEF9FEFB7C0F1E081
:103E6000911101C0F0E06F2F70E01416150624F4D4
:103E70009A012F5F3F4F02C021E030E0260F371F2D
:103E8000BB2029F06B2D70E06F5F7F4F02C060E0B8
:103E900070E0260F371F612F70E0261737071CF4DC
:103EA000121B212F01C020E03E2D387159F4D6019C
:103EB000322F60E2332319F06D933150FBCFC20EE5
:103EC000D11C20E0FF2331F0D6019C93B6016F5F37
:103ED0007F4F6B01E1110BC0F601922F30E3992364
:103EE00019F031939150FBCFC20ED11C20E09F2DD1
:103EF000940F3A81782F7071A72E84FF03C031335D
:103F000009F49150191624F4993018F098E001C082
:103F100091E0E42F852F57FF02C0E0E080E06E2F94
:103F2000782FE0E0F0E0AEE29A2E3A01691A7108CB
:103F30002A01461A570A0B2D10E011950195110917
:103F40006F3F8FEF780729F4D6019C92C601019646
:103F50006C014617570784F0661677066CF47F01EC
:103F6000E40CF51CA1E0B0E0AC0FBD1FEA0EFB1E97
:103F7000D7011196BC9002C090E3B92E615071092F
:103F80003196C60101967C016017710724F0D601B5
:103F9000BC926C01D5CF6417750741F4363320F419
:103FA000353321F4A11002C081E3B82EF601B082AE
:103FB000F701822F90E2882319F091938150FBCF73
:103FC000F701E20FF11D108280E090E029960FB614
:103FD000F894DEBF0FBECDBFDF91CF911F910F913F
:103FE000FF90EF90DF90CF90BF90AF909F907F9029
:103FF0006F905F904F900895283008F027E03327A6
:10400000DA01990F311D87FD9160009661057105F8
:1040100039F432602E5F3D9330E32A95E1F708953D
:104020009F3F30F080387105610509F03C5F3C5FCF
:104030003D93913008F08068911DDF93CF931F93DB
:104040000F93FF92EF92192F987F9695E92F9695EF
:104050009695E90FFF27EE5BFE4F99273327EE2455
:10406000FF24A701E70105900894079428F4360F70
:10407000E71EF81E491F511D660F771F881F991FE5
:104080000694A1F70590079428F4E70EF81E491F3F
:10409000561FC11D770F881F991F661F0694A1F731
:1040A0000590079428F4F80E491F561FC71FD11D0D
:1040B000880F991F661F771F0694A1F70590079434
:1040C00020F4490F561FC71FD81F990F661F771F6F
:1040D000881F0694A9F784911095177041F0D69522
:1040E000C79557954795F794E7941A95C1F7E8EE69
:1040F000F0E0689415901591359165919591059032
:104100007FE27395E118F10A430B560BC90BD009F6
:10411000C0F7E10CF11E431F561FC91FD01D7EF4CE
:10412000703311F48A95E6CFE894015030F0080F0F
:104130000AF40027021708F4202F2395022F7A3360
:1041400028F079E37D932A95E9F710C07D932A95AD
:1041500089F6069497956795379517951794E11802
:10416000F10A430B560BC90BD00998F023957E91A9
:1041700073957A3308F070E37C932013B8F77E913F
:1041800070617D9330F0839571E37D9370E32A95A0
:10419000E1F71124EF90FF900F911F91CF91DF91E4
:1041A000992787FD90950895DC01FC01672F719197
:1041B0007723E1F7329704C07C916D93708362910D
:1041C000AE17BF07C8F308950E94262108F481E0C6
:1041D0000895E89409C097FB3EF4909580957095FA
:1041E00061957F4F8F4F9F4F9923A9F0F92F96E943
:1041F000BB279395F695879577956795B795F111B8
:10420000F8CFFAF4BB0F11F460FF1BC06F5F7F4F54
:104210008F4F9F4F16C0882311F096E911C0772366
:1042200021F09EE8872F762F05C0662371F096E86F
:10423000862F70E060E02AF09A95660F771F881F3E
:10424000DAF7880F9695879597F90895990F0008E2
:10425000550FAA0BE0E8FEEF16161706E807F90758
:10426000C0F012161306E407F50798F0621B730BF3
:10427000840B950B39F40A2661F0232B242B252B74
:1042800021F408950A2609F4A140A6958FEF811D17
:10429000811D08950E945D210C94CE210E94C021B1
:1042A00038F00E94C72120F0952311F00C94B7211B
:1042B0000C94BD2111240C9402220E94DF2170F382
:1042C000959FC1F3950F50E0551F629FF001729FBB
:1042D000BB27F00DB11D639FAA27F00DB11DAA1FCA
:1042E000649F6627B00DA11D661F829F2227B00D17
:1042F000A11D621F739FB00DA11D621F839FA00DA2
:10430000611D221F749F3327A00D611D231F849FF1
:10431000600D211D822F762F6A2F11249F57504048
:104320009AF0F1F088234AF0EE0FFF1FBB1F661FC3
:10433000771F881F91505040A9F79E3F510580F08C
:104340000C94B7210C9402225F3FE4F3983ED4F31F
:10435000869577956795B795F795E7959F5FC1F730
:10436000FE2B880F911D9695879597F9089597F9DB
:104370009F6780E870E060E008959FEF80EC08950B
:1043800000240A9416161706180609060895002434
:104390000A9412161306140605060895092E0394AE
:1043A000000C11F4882352F0BB0F40F4BF2B11F422
:1043B00060FF04C06F5F7F4F8F4F9F4F089557FD81
:1043C0009058440F551F59F05F3F71F04795880F83
:1043D00097FB991F61F09F3F79F08795089512161A
:1043E00013061406551FF2CF4695F1DF08C01616C6
:1043F00017061806991FF1CF869571056105089477
:104400000895E894BB2766277727CB0197F908958D
:10441000F999FECF92BD81BDF89A992780B508958C
:10442000262FF999FECF1FBA92BD81BD20BD0FB6D0
:10443000F894FA9AF99A0FBE01960895052E97FB03
:104440001EF400940E94352257FD07D00E94872257
:1044500007FC03D04EF40C943522509540953095CE
:1044600021953F4F4F4F5F4F0895909580957095E0
:1044700061957F4F8F4F9F4F08950E94A922A59F5E
:10448000900DB49F900DA49F800D911D112408954F
:10449000B7FF0C943D220E943D22821B930B08958E
:1044A0002F923F924F925F926F927F928F929F9244
:1044B000AF92BF92CF92DF92EF92FF920F931F9332
:1044C000CF93DF93CDB7DEB7CA1BDB0B0FB6F894E3
:1044D000DEBF0FBECDBF09942A88398848885F8423
:1044E0006E847D848C849B84AA84B984C884DF8094
:1044F000EE80FD800C811B81AA81B981CE0FD11D78
:104500000FB6F894DEBF0FBECDBFED010895A1E256
:104510001A2EAA1BBB1BFD010DC0AA1FBB1FEE1F3D
:10452000FF1FA217B307E407F50720F0A21BB30B88
:10453000E40BF50B661F771F881F991F1A9469F704
:1045400060957095809590959B01AC01BD01CF0160
:104550000895A29FB001B39FC001A39F700D811D5C
:104560001124911DB29F700D811D1124911D08957C
:104570005058BB27AA270E94D0220C94CE210E941B
:10458000C02138F00E94C72120F039F49F3F19F470
:1045900026F40C94BD210EF4E095E7FB0C94B721B2
:1045A000E92F0E94DF2158F3BA17620773078407C7
:1045B000950720F079F4A6F50C9401220EF4E0950D
:1045C0000B2EBA2FA02D0B01B90190010C01CA01CD
:1045D000A0011124FF27591B99F0593F50F4503E78
:1045E00068F11A16F040A22F232F342F4427585F6A
:1045F000F3CF469537952795A795F0405395C9F782
:104600007EF41F16BA0B620B730B840BBAF0915039
:10461000A1F0FF0FBB1F661F771F881FC2F70EC0D8
:10462000BA0F621F731F841F48F4879577956795AB
:10463000B795F7959E3F08F0B0CF9395880F08F097
:104640009927EE0F9795879508950E942C236894DB
:10465000B1110C94022208950E94E72188F09F571F
:1046600098F0B92F9927B751B0F0E1F0660F771F96
:10467000881F991F1AF0BA95C9F714C0B13091F08C
:104680000E940122B1E008950C940122672F782F37
:104690008827B85F39F0B93FCCF386957795679551
:1046A000B395D9F73EF490958095709561957F4FBD
:1046B0008F4F9F4F08950E94262108F48FEF089591
:1046C0000E942621880B990B0895AA1BBB1B51E160
:1046D00007C0AA1FBB1FA617B70710F0A61BB70B72
:1046E000881F991F5A95A9F780959095BC01CD0117
:1046F000089597FB072E16F4009407D077FD09D094
:104700000E94652307FC05D03EF4909581959F4F4C
:104710000895709561957F4F0895EE0FFF1F0590E6
:10472000F491E02D0994CF93DF938230910510F43A
:1047300082E090E0E091BB07F091BC0720E030E020
:10474000C0E0D0E0309711F14081518148175907FE
:10475000C0F04817590761F482819381209719F0BE
:104760009B838A832BC09093BC078093BB0726C092
:104770002115310519F04217530718F49A01BE01AB
:10478000DF01EF010280F381E02DDCCF211531053F
:1047900009F1281B390B2430310590F412968D91C4
:1047A0009C9113976115710521F0FB01938382831E
:1047B00004C09093BC078093BB07FD01329644C0B0
:1047C000FD01E20FF31F81939193225031092D9344
:1047D0003C933AC02091B9073091BA07232B41F49A
:1047E00020911D0130911E013093BA072093B90723
:1047F00020911B0130911C012115310541F42DB789
:104800003EB740911F0150912001241B350BE091D0
:10481000B907F091BA07E217F307A0F42E1B3F0B7C
:104820002817390778F0AC014E5F5F4F2417350722
:1048300048F04E0F5F1F5093BA074093B90781931A
:10484000919302C0E0E0F0E0CF01DF91CF910895B5
:104850000F931F93CF93DF93009709F48CC0FC0153
:104860003297138212820091BB071091BC07011589
:10487000110581F420813181820F931F2091B907A6
:104880003091BA072817390779F5F093BA07E09302
:10489000B90771C0D80140E050E0AE17BF0750F42F
:1048A00012962D913C911397AD012115310509F117
:1048B000D901F3CF9D01DA013383228360817181B5
:1048C000860F971F8217930769F4EC0128813981BD
:1048D000260F371F2E5F3F4F318320838A819B81B4
:1048E00093838283452B29F4F093BC07E093BB07A5
:1048F00042C01396FC93EE931297ED0149915991A2
:104900009E01240F351FE217F30771F48081918116
:10491000840F951F029611969C938E9382819381AA
:1049200013969C938E931297E0E0F0E0D8011296D4
:104930008D919C911397009719F0F8018C01F6CF97
:104940008D919C9198012E5F3F4F820F931F209174
:10495000B9073091BA072817390769F4309729F455
:104960001092BC071092BB0702C0138212821093F0
:10497000BA070093B907DF91CF911F910F91089566
:10498000A0E0B0E0E6ECF4E20C945422EC010097D5
:1049900021F4CB010E949323B8C0FC01E60FF71F5E
:1049A0009C0122503109E217F30708F4ACC0D90189
:1049B0000D911C91119706171707B0F005301105DE
:1049C00008F49FC0C80104978617970708F499C098
:1049D00002501109061B170B019311936D937C93E1
:1049E000CF010E9428248DC05B01A01AB10A4C019E
:1049F000800E911EA091BB07B091BC0740E050E033
:104A0000E12CF12C109709F44AC0A815B905D1F58D
:104A10006D907C901197630182E0C80ED11CCA147E
:104A2000DB0480F1A3014A195B096A0182E0C80E28
:104A3000D11C1296BC9012971396AC91B5E0CB1690
:104A4000D10440F0B282A38351834083D9016D9396
:104A50007C930AC00E5F1F4FC301800F911FF901A5
:104A600091838083EB2DFA2FE114F10431F0D7010B
:104A70001396FC93EE93129744C0F093BC07E09317
:104A8000BB073FC08D919C9111974817590708F4B7
:104A9000AC017D0112960D90BC91A02DB3CF8091F9
:104AA000B9079091BA0788159905E1F44617570799
:104AB000C8F480911B0190911C01009741F48DB7BF
:104AC0009EB740911F0150912001841B950BE81760
:104AD000F907C8F4F093BA07E093B907F9017183B5
:104AE00060830FC0CB010E9493237C01009759F093
:104AF000A801BE010E948F25CE010E942824C70173
:104B000004C0CE0102C080E090E0CDB7DEB7EEE099
:104B10000C94702281E090E0F8940C949F25FB01A6
:104B2000DC0102C001900D9241505040D8F7089529
:104B3000FB01DC0101900D920020E1F70895F8944B
:024B4000FFCFA5
:104B4200013A0001000A0001000100FFFFFFFF001F
:104B5200E1000000000000010000000000BD07802D
:104B62000000C1808100000000000000C305F508BC
:104B7200B307D905E405DB07B70700000000A0066C
:104B82009805B007AF07D51CFCFF0000161D5802A0
:104B92004A75737420612047616D65004D616465DB
:104BA200206279004D6F7269747A2046726F6D6D62
:104BB200006269742E6C792F6D6647616D650041E4
:104BC20020746F20706C6179005455544F524941E2
:104BD2004C2028312F32293A00596F7520686176AE
:104BE2006520746F206869740074686520656E655D
:104BF2006D792E205768656E00796F75206869742B
:104C02002C20796F752063616E0073686F74206168
:104C12006674657220612068616C66205365636FFB
:104C22006E642E2E2E00555020746F20636F6E74AA
:104C3200696E7565005455544F5249414C202832D3
:104C42002F33293A002E2E2E6966206E6F742C2087
:104C5200796F7500796F75206861766520746F20B1
:104C6200776169740032205365636F6E64732E201E
:104C72004120636F6D626F00676976657320796F9B
:104C820075206120626F6E7573005455544F5249FE
:104C9200414C2028332F33293A0050726573732018
:104CA2004120746F206669726500507265737320CB
:104CB200555020746F00737461727420746865209B
:104CC20067616D6500596F75202068617620726595
:104CD20061636865640020506F696E7473004E45AD
:104CE2005720484947483A2000486967683A2000F7
:104CF200507265737320555020746F20706C617907
:104D020000616761696E21002C006E616E00696E40
:104D120066006F7666000A00205365632E206C657C
:044D220066740000B3
:00000001FF
